:020000040800F2
:10000000400A0020C5010008014400080F41000813
:10001000FD430008F11A0008F54F00080000000039
:10002000000000000000000000000000754600080D
:10003000811B000800000000054400080549000875
:10004000DF010008DF010008DF010008DF01000810
:10005000DF010008DF010008DF010008DF01000800
:10006000DF010008DF010008DF010008051B0008B0
:10007000151B0008251B0008351B0008451B000840
:10008000DF010008DF010008DF010008DF010008D0
:10009000DF010008F51A0008DF010008DF01000891
:1000A000DF010008DF010008DF010008DF010008B0
:1000B000DF010008DF010008DF010008DF010008A0
:1000C000DF010008DF010008DF010008DF01000890
:1000D000DF010008D54F0008DF010008E54F0008E8
:1000E000DF010008DF010008DF01000800F002F86E
:1000F00000F059F80AA090E8000C82448344AAF169
:100100000107DA4501D100F04EF8AFF2090EBAE866
:100110000F0013F0010F18BFFB1A43F0010318473B
:100120004857000068570000103A24BF78C878C1CB
:10013000FAD8520724BF30C830C144BF04680C60ED
:10014000704700000023002400250026103A28BF35
:1001500078C1FBD8520728BF30C148BF0B60704739
:100160006E2900F0BB80702900F0CC80662905F074
:10017000DE82652905F0DB82672905F0D8826129D6
:1001800005F0D782732900F01E86002070471FB546
:1001900000F01EFE04000020002104F07DFFE0605E
:1001A0001FBD10B510BD00F013FF1146FFF7EFFFA4
:1001B00004F059FF00F031FF03B4FFF7F2FF03BC76
:1001C00000F074FF0948804709480047FEE7FEE752
:1001D000FEE7FEE7FEE7FEE7FEE7FEE7FEE7FEE7F7
:1001E00004480549054A064B70470000914900083C
:1001F000ED00000840040020400A002040060020D6
:10020000400600200FB47CB50C0009AA009001D074
:100210002044401E084B7B4469460190089800F03A
:10022000A0FD05461CB10020694600F0ADFD284642
:100230007CBC5DF814FB0000790B000070B504462F
:1002400085690068C10601D5302600E02026C00778
:1002500007D070BDD4E9012130469047206A401C88
:1002600020626D1EF6D570BD70B5044685690078B4
:10027000C00707D170BDD4E9012120209047206A32
:10028000401C20626D1EF6D570BD70B50C4605464B
:10029000012A05D02878800600D5EA69002302E00B
:1002A000012305E05B1C934202D2E05C0028F9D1F7
:1002B000A869E618C01AA861286A18442862284666
:1002C000FFF7BCFF04E0D5E9012114F8010B9047CA
:1002D000B442F8D32846FFF7C7FF70BD1168026823
:1002E000006A530501D508700AE0D30501D50880DE
:1002F00006E0130603D5C217C1E9000200E008605A
:1003000001207047F0B4136802680824C4610C46E9
:1003100042F020020260110502D50E4A7A4402E042
:100320000C4A7A440E32002100F1240505E003F066
:100330000F061B09965D6E54491C002BF7D10578FA
:100340002D0703D5702C01D101231032F0BC00F031
:100350001DB90000525400002DE9F05F89460446A3
:100360004FF0000ADFF874B1FB44C0F820A020462B
:10037000E1688847002874D0252806D0D4E90121F7
:100380009047206A401C2062F1E700265F46204625
:10039000E16888472028054607DB312D05D278190A
:1003A00010F8200C08B10643F1E7B00701D526F09C
:1003B0000406C4F81CA00027C4F818A02A2D09D0F0
:1003C000284604F049FE38B304EB8708303DC8F8EE
:1003D000185019E059F8041B204604EB870291617C
:1003E000E1688847012F054618D1E069002820DA26
:1003F00026F020061DE0D8F8180000EB800005EB81
:1004000040003038C8F818002046E16888470546A3
:1004100004F022FE0028EED1012F0AD02E2D08D1A3
:100420002046E16888477F1C0546022F46F02006DB
:10043000C4DBA069002803DA404246F00106A0614F
:10044000F00701D026F010066C2D0BD0682D09D0D6
:100450004C2D39D06A2D35D0742D35D07A2D33D02E
:1004600016E038E0E1682F4620468847B842054646
:1004700009D16C2F26D04FF48060E16806432046F6
:100480008847054604E06C2F1AD04FF4807006436D
:100490000DB3A5F14100192802D8203546F40066B5
:1004A0004A462946204626604E46FFF759FE80B14F
:1004B00001280BD0F61D26F0070000F1080956E7C9
:1004C0004020E4E78020D8E70020D6E706F10409C1
:1004D0004DE7284652E7206ABDE8F09F2E54000001
:1004E00040EA010310B59B070FD1042A0DD310C8B1
:1004F00008C9121F9C42F8D020BA19BA884201D903
:10050000012010BD4FF0FF3010BD1AB1D30703D04A
:10051000521C07E0002010BD10F8013B11F8014B00
:100520001B1B07D110F8013B11F8014B1B1B01D11C
:10053000921EF1D1184610BD4FF0000200B51346CF
:1005400094469646203922BFA0E80C50A0E80C50F3
:10055000B1F12001BFF4F7AF090728BFA0E80C50A4
:1005600048BF0CC05DF804EB890028BF40F8042B9D
:1005700008BF704748BF20F8022B11F0804F18BF0A
:1005800000F8012B70477047704770472DE9F0471E
:100590000D4699469246044600F1240801688806F3
:1005A00004D5E06921F01001216000E00120A8429B
:1005B00001DD471B00E00027A1697A1902EB090061
:1005C000081AA0612078C00602D42046FFF736FE44
:1005D000002608E0D4E901211AF806009047206AB5
:1005E000401C761C20624E45F4DB2078C0060AD5FC
:1005F0002046FFF723FE06E0D4E901213020904792
:10060000206A401C2062381EA7F10107F4DC07E0D5
:10061000D4E9012118F805009047206A401C2062A7
:10062000281EA5F10105F3DC2046FFF71DFE20780A
:10063000000602D50220BDE8F0870120FBE77047E5
:100640002DE9FF4F0C461E464FF0FF378BB0D2E925
:100650000001DDF860800A908A46C1F30A5505B9A9
:100660003D46002108464FF00000BAF1000F00F4AB
:10067000400005DA00EB80004FF4400101EA500031
:100680004FEA9059B9F1010F00DDB9460A9850EAD6
:100690004A000ED044F61050A5F2FF3545432F1402
:1006A000B8F1000F1ED07542291E1EDDC9F10002EF
:1006B0001CE0B8F1010F4FF0000001D0302103E041
:1006C000F24305E02154401CB042FBDB30460022DF
:1006D000002121540B99C1F80880C1E900200FB016
:1006E000BDE8F08FBD1B6D1CDEE74A4600DA6942AB
:1006F00006A800F0F7FB06AB93E8070003AB83E81E
:10070000070050460A9900F0D8FC8DE80700A0F5D4
:1007100000501F3800900398002D0ADD42F21F019F
:100720004A460844002303A90390684600F041FFAD
:1007300009E0A0F500504A461F38002303A90390A2
:10074000684600F04BFF8DE807000004000C03D062
:100750004FF0FF30410800E01046B8F1000F03D021
:100760000022009215461EE0751E05D400F034FBF1
:10077000303262556D1EF9D5B3460122084302D0CE
:1007800000227F1C04E02078302801D100227F1E47
:10079000002A099784D01DE0112D07DA00F01CFB18
:1007A000303262556D1C50EA0102F5D1084302D087
:1007B0000098C8B10EE00021681E05E0235C625C71
:1007C00063542254401E491C8142F7DBAB46A81BF0
:1007D000401E0990002004F80B000B98099AC0F8FD
:1007E0000880C0E9002B7AE711264FF0000857E790
:1007F0002DE9F04F88460446D21D22F0070191B042
:10080000D1E90001CDE90A0104F0F6FB02460B989C
:10081000C00F01D02D2007E02068810701D52B20D3
:1008200002E0202101EAC000032A099001D0072A32
:1008300005DB03464146204600F014FB0BE120781F
:10084000800601D5E06900E00620B8F1650F814619
:1008500006D0B8F1660F18D0B8F1670F70D131E04B
:100860000020B9F1110F009001DB112301E009F123
:1008700001030AAA01A90CA8FFF7E2FEDDE90C704A
:10088000002609F10105834647E001204B46009010
:100890004FF000470AAA01A90CA8FFF7D1FEDDE935
:1008A0000DB00C995D46002610B909F101000D1834
:1008B000B9EB050003D4C0F1FF3609F10105A5EB42
:1008C00009002BE0B9F1010F01DA4FF00109002016
:1008D000B9F1110F0090484601DD112300E00346F5
:1008E0000AAA01A90CA8FFF7ABFEDDE90C704D4682
:1008F00000268346207800070AD4AB4500DA5D461F
:1009000001A8012D04DD411911F8011C302907D07F
:100910004F4502DA17F1040F04DA012082460FE096
:100920006D1EEEE7002F02DCED1B3E4403E0781C59
:10093000A84200DD7D1CB81B00F1010A4FF0004702
:100940002078000703D4AA4501DB4FF0FF3A0021CD
:10095000B7F1004F0DF143088DF8431024D0022069
:100960002B23002F01DA7F422D230A21021EA0F142
:10097000010000DC5FB197FBF1FC97FBF1F201FB9A
:100980001C7C17460CF1300C08F801CDEEE7A8F1FD
:10099000010003702188090501D5452100E065218A
:1009A000A0F1010800F8011C09980FA9A1EB0807A4
:1009B000FF1D00B10120411901EBEA70A169384423
:1009C000081A401EA0612078C00602D42046FFF716
:1009D00035FC099828B1D4E901219047206A401CD0
:1009E00020622078C00622D52046FFF727FC1EE0B3
:1009F000002E04DBB34502DD01A8805D00E030205D
:100A0000D4E901219047206A401C2062761CAAF19B
:100A100001005FEA000A0AD100F0DAF9C068016853
:100A2000405CD4E901219047206A401C2062281EC6
:100A3000A5F10105DCDC07E0D4E9012118F8010B80
:100A40009047206A401C2062381EA7F10107F3DCA2
:100A50002046FFF709FC032011B041E62DE9F04FD5
:100A600004460D46D21D22F0070089B0D0E9009758
:100A70004846394604F0C0FA0246F80F01D02D234B
:100A800007E02068810701D52B2302E0202101EA3D
:100A9000C0038DF820300BB1012000E00020032AB4
:100AA000824601D0072A04DB2946204600F0DAF905
:100AB0003FE12078800601D40D2500E0E569C7F309
:100AC0000A560D2D49DA00214FEA175B08464FF010
:100AD0000000002F00F4400007DA00EB80004FF424
:100AE000400100EBD07001EA60008115012901DDB1
:100AF0004FF0FF3100224FEA850CBCF1180F06D3EE
:100B00001346ACF118004FF08052C24003E04FF49E
:100B1000801323FA0CF30CF10C0CBCF1200F04D35E
:100B2000ACF1200C09FA0CF001E007FA0CF00029F6
:100B30004FF0004801DD18B90FE00ED140450CD34D
:100B400019EB02095F4121B9404502D19F4329EACF
:100B50000209BBEB175F00D0761C2088000502D588
:100B60007B48784402E07A487844193808AA302350
:100B700002F80A30037C0AF10101002E0AF1020A90
:100B800053546A4602DC4FF0300101E04FF031016E
:100B90004FF001088DF8001002D0A6F2FF3603E0F6
:100BA00059EA470100D06B4E002D02DC217809077D
:100BB00004D54FF002082E218DF80110C446002103
:100BC0000BE0C7F303433F01C35C491C6D1E02F8F1
:100BD0000830052908F1010801DA002DF1DC0021B7
:100BE0000CE000EB1973491C1B786D1E082902F8F4
:100BF00008304FEA091908F1010801DA002DF0DC8C
:100C000021688B0602D516E0A8F10108E04505DD54
:100C100002EB080313F8013C302BF5D0B8F1000FBC
:100C200009DD02EB080313F8013C2E2B03D1090761
:100C300001D4A8F10108002D05DD3E2102F80810BD
:100C40006D1E08F10108407C002E02F8080008F132
:100C5000010804DA2D20764202F8080002E02B2079
:100C600002F808000A214FF47A70864208F1010860
:100C70000BDB96FBF0F3303302F8083096FBF0F311
:100C800008F1010800FB136601E0642E0CDB642010
:100C900096FBF0F3303302F8083096FBF0F308F1DE
:100CA000010800FB136601E00A2E06DB96FBF1F05B
:100CB000303002F8080008F1010896FBF1F001FB62
:100CC0001060303002F80800A16908F1010808EB53
:100CD000050202EB0A00081AA0612078C00602D4BF
:100CE0002046FFF7ABFA216A08AE01EB0A0020624A
:100CF00004E0D4E9012116F8010B9047BAF1010A8A
:100D0000F7D22078C00602D52046FFF797FA6E4644
:100D100009E016F8010B3E280FD0D4E901219047D5
:100D2000206A401C2062B8F10108F2D22046FFF789
:100D30009BFA09B00320BDE8F08F206A28442062A6
:100D400003E0D4E90121302090476D1EEBD3F8E792
:100D5000584C000002FCFFFF01694A1C0261087840
:100D6000704700B58FB0CDE90131002105910549EB
:100D70007944CDE9031011466846FFF7EDFA0FB04C
:100D800000BD0000E5FFFFFF0A6802F8010B0A60E2
:100D90007047D1E900239A4202D2531C0B601070B5
:100DA000704710B5436913B1AFF3008001E0FFF75E
:100DB0006CFA012010BD127800F124010A700022A3
:100DC0004A700122EDE711684FF0FF32E9E70000B9
:100DD00000487047FC03002030B5B0F10A024FEA2A
:100DE000900E71F100034EEA817EB0EB0E0061EBD4
:100DF00091014FEA101E4EEA017E10EB0E0041EB0E
:100E000011114FEA102E4EEA016E10EB0E0041EB6D
:100E100011214FEA104E4EEA014E10EB0E0041EB4D
:100E20001141401841F100014FEAD00040EA417001
:100E30004FEAD10110EB80054FEA810444EA907437
:100E400044EB01046D1944EB0404521BA3414FF021
:100E5000000348BF0A3200D530BD401C41F10001FB
:100E600030BD00002DE9F0411F460446032601680D
:100E7000072A01F4006004DB08B116A505E016A5F9
:100E800003E008B115A500E015A521F010002060D1
:100E9000A069C01EA0610FB1401EA0612046FFF7EF
:100EA000CDF94FB1D4E9012138469047206A401C62
:100EB0002062C01C206206E0206AFAE7D4E9012122
:100EC00015F8010B9047761EF8D22046FFF7CCF9B3
:100ED000BDE8F0814E414E006E616E00494E460005
:100EE000696E66002DE9F047814616468AB035489E
:100EF00078440DC88DE80D0032487844801C03AC5E
:100F00000DC884E80D0041F69B300844372190FB62
:100F1000F1F290FBF1F5A5F1800501FB12041B3CF9
:100F200002D56442012000E00020DFF898A080464E
:100F30000027FA44AAF1BE0A0EE0E0070AD03246C2
:100F4000684607EB470101230AEB810100F046FBED
:100F50008DE8070064107F1C002CEED1194F7F44F0
:100F6000AE3F19E0E80715D007EB04100DF1180AA1
:100F700090E80E008AE80E00C068F04201D198198E
:100F800008903246012306A903A800F027FB03AB13
:100F900083E807006D10641C002DE3D14FF00103BE
:100FA00032466946B8F1000F03A802D000F001FBF9
:100FB00001E000F013FBC9E90001C9F808200AB0FC
:100FC000BDE8F0875C49000000487047DC03002062
:100FD0007546FFF7F9FFAE4605006946534620F017
:100FE0000700854618B020B5FFF7FAF8BDE82040A5
:100FF0004FF000064FF000074FF000084FF0000BD5
:1010000021F00701AC46ACE8C009ACE8C009ACE887
:10101000C009ACE8C0098D46704710B50446AFF36F
:1010200000802046BDE81040FFF7C6B84FF0013CF5
:1010300050F8042B51F8043B9A4221D1A2EB0C0347
:10104000934313EACC1317D150F8042B51F8043B07
:101050009A4215D1A2EB0C03934313EACC130BD1A4
:1010600050F8042B51F8043B9A4209D1A2EB0C032F
:10107000934313EACC13DBD04FF00000704700BF5E
:10108000D01A01BAB1FA81F101F0180122FA01F087
:10109000CB40C1F12001DBB2C0B2C01A2CFA01F37F
:1010A000D11A914311EAC311E6D1704701491820C2
:1010B000ABBEFEE72600020070475FEA400C08BFA7
:1010C00091F0000F4FEA8C234FEAC12243EA5151BD
:1010D0004FEA1C5018BF00F5F0404FEA300018BF2F
:1010E00041F000415FEA6C5C00F02980BCF1FF3FF9
:1010F00008BF40F080407047130C06BF12044FF049
:10110000100C4FF0000C130E04BF12020CF1080C6F
:10111000130F04BF12010CF1040C930F04BF9200D3
:101120000CF1020CD30F04BF52000CF1010C11465C
:101130004FF00002A0F11F00A0EB0C00704711F06F
:10114000004F08BF704731F000413FF4D5AF0B0CA2
:1011500006BF09044FF0100C4FF0000C0B0E04BF3B
:1011600009020CF1080C0B0F04BF09010CF1040C6F
:101170008B0F04BF89000CF1020CCB0F04BF490098
:101180000CF1010CCCF12003A0EB0C0022FA03F3CC
:1011900002FA0CF241EA030100F10100704720F06D
:1011A0007F4C80EA030023F07F47ACEB070303F595
:1011B0007C5300F0004003F1FF032DE980494FEA22
:1011C000154B09B44FEA144325EA0B4E24EA0348B1
:1011D0000FF2042606EB132749083E785FEA320235
:1011E00003FB0667C7F5000707FB06F64FEA54370F
:1011F0004FEAD64606F1020607FB066CCCF1005C0E
:101200004FEA1C472CEA074C07FB06F40CFB06F5DB
:1012100004EB15464FEA961634BF00204FF000400D
:101220004FEAD13706FB07FC4FEA1C4C0CFB0BF7CF
:10123000D21B03FB0CF761EB07010CFB0EF7B0EBC5
:10124000074072EB17420CFB08F734BFA2EB0742D2
:10125000B2EB074261EB17414FEA0C444FEA9107AA
:1012600006FB07FC4FEA1C4C0CFB0BF7B0EBC7402E
:1012700072EB573203FB0CF734BFA2EBC742B2EB61
:10128000C74261EB57310CFB0EF7B0EBC70072EBB6
:1012900057720CFB08F734BFA2EBC702B2EBC702D0
:1012A00061EB5771039F4FEA816141EA921104EBB0
:1012B000CC044FEAD1374FEA826206FB07FC42EAD0
:1012C00090124FEA80604FEA1C4C0CFB0BF7D21BCC
:1012D00003FB0CF761EB07010CFB0EF7B0EB0740CB
:1012E00072EB17420CFB08F734BFA2EB0742B2EBDC
:1012F000074261EB17414FEA8C554FEA910704EB27
:101300009C2406FB07FC4FEA1C4C0CFB0BF7B0EBD4
:10131000C74072EB573203FB0CF734BFA2EBC74256
:10132000B2EBC74261EB57310CFB0EF7B0EBC700D5
:1013300072EB57720CFB08F734BFA2EBC702B2EB9B
:10134000C70261EB577115EB4C254FEA816141EA09
:1013500092114FEA82624FEAD13742EA901206FBBD
:1013600007FC44F100044FEA80604FEA1C4C0CFB80
:101370000BF7D21B03FB0CF761EB07010CFB0EF71D
:10138000B0EB074072EB17420CFB08F734BFA2EB3F
:101390000742B2EB074261EB174115EB1C154FEA10
:1013A000813141EA92414FEA823242EA90424FEA69
:1013B00080304FEA0C7644F1000448EA03434EEAD9
:1013C0000B484FF0000EB2EB080C71EB030724BF83
:1013D000624639464EEB0E0E4FF0000B001852419C
:1013E00049414BEB0B0BB2EB080C71EB03077BF1A4
:1013F000000B24BF624639464EEB0E0E4FF0000B39
:101400000018524149414BEB0B0BB2EB080C71EB4E
:1014100003077BF1000B24BF624639464EEB0E0EEC
:1014200051EA020718BF46F0010616EB0E7655F199
:10143000000254F1000103D5BDE88901BDE8008830
:10144000BDE88901BDE80048B619524141EB0101F0
:10145000A3F10103704780807F7E7D7C7B7A797861
:10146000777676757473727171706F6E6E6D6C6C69
:101470006B6A6A696868676666656464636362610B
:101480006160605F5F5E5E5D5D5C5C5B5B5A5A598C
:1014900059585857575656555555545453535252F8
:1014A0005251515050504F4F4F4E4E4D4D4D4C4C50
:1014B0004C4B4B4B4A4A4A49494948484847474799
:1014C00047464646454545444444444343434342D6
:1014D000424242414141002B9C4630D477002BD000
:1014E0001CB54FEA370703B44FF010004FF010015E
:1014F000BAF1000F06D0BCF1000FDCBF40F00800CD
:1015000040F008014FF000000FBCBDE810400BF1A7
:10151000010BBBF1010F08BF5FEA170722BF12F1F1
:10152000010211F101014FF0004143F1000300F00D
:10153000004043EA00007047F9D35708D0E746EA75
:10154000064613F1400F4FEA16461FDD13F1200F38
:10155000DFBF16430A46002120335B42BED0C3F1F1
:10156000200746EA064602FA07F74FEA164646EA19
:101570000706C3F1200722FA03F201FA07F721FA5E
:1015800003F14FF0000342EA0702A7E746EA02062A
:1015900046EA06464FEA164646EA0106BCBF46EA58
:1015A0000646360C4FF000034FF000024FF00001EA
:1015B00094E72DE9804C9A46934670B491E8380040
:1015C00007C831EA400C48BF34EA430C03D5FFF7A3
:1015D000E6FDFFF780FFF0BCBDE8008C2DE9804CF4
:1015E0009A46934670B491E8380007C810F0804FCF
:1015F00008BF13F0804F03D100F005F8FFF76BFF31
:10160000F0BCBDE8008C20F07F4780EA030023F0A7
:101610007F4C07EB0C03A3F57C5300F00040A3F1D3
:10162000FE0392F0000F00F0B38095F0000F00F081
:1016300077802DE901494FEA11404FEA144621EA2B
:10164000004800FB06FC24EA064708FB06F607FBF9
:1016500008F800FB07F718EB06484CEB164C4FEA6E
:10166000124B18EB07484FEA15464CEB174022EA9D
:101670000B4E0BFB06FC25EA06470EFB06F607FBA6
:101680000EFE0BFB07F71EEB064E4CEB164C4FF015
:1016900000061EEB074E4CEB174B18EB0B0840F106
:1016A000000018EB0E0B58EB000840F100008F1AF9
:1016B0004FF000013CBFC943661B14BFB5EB040CDF
:1016C00000213CBFC943F61B4FEA17444EEA8E0E79
:1016D00027EA04454FEA1C4704FB07622CEA074C43
:1016E00005FB07F70CFB05F604FB0CFC16EB0746A5
:1016F00042EB174216EB0C4642EB1C421BEB060674
:1017000058EB0202414146EA9E0601D5BDE8018937
:10171000B619524141EB0101A3F10103BDE8018972
:101720004FEA14454FEA114724EA054621EA074CDF
:1017300005FB07F406FB07F70CFB06F105FB0CFCA9
:1017400011EB074144EB17444FEA124711EB0C41F0
:1017500044EB1C4422EA074C05FB07F206FB07F7A3
:101760000CFB06F605FB0CFC16EB074642EB17429A
:1017700016EB0C4642EB1C456A1854F1000148BFB9
:101780007047B619524141EB0101A3F101037047C3
:1017900095F0000F37D04FEA11424FEA144721EA83
:1017A000024624EA074C02FB07F106FB07F70CFB95
:1017B00006F402FB0CFC14EB074441EB17414FEA23
:1017C000154714EB0C4441EB1C4125EA074C02FB86
:1017D00007F506FB07F70CFB06F602FB0CFC16EB05
:1017E000074645EB174516EB0C4645EB1C42121914
:1017F00051F1000148BF7047B619524141EB010158
:10180000A3F1010370474FEA14454FEA114724EA58
:10181000054621EA074C05FB07F106FB07F70CFB21
:1018200006F24FF0000605FB0CFC12EB074241EB01
:10183000174112EB0C4251EB1C4148BF7047921804
:1018400041EB0101A3F10103704770B50446002587
:101850002068806800F0010018B32068806820F0DC
:1018600001002168886001F087FA054613E001F065
:1018700083FA401B02280ED92068806800F001001E
:1018800048B1A06A40F01000A062E06A40F0010098
:10189000E062012070BD2068806800F0010000282F
:1018A000E5D10020F6E770B505466C6AA06A00F045
:1018B0005000E0B9A06A40F40070A062206880681F
:1018C00000F46020B0F5602F0DD1207B58B9A06ADC
:1018D00020F48070A062A06A00F4805018B9A06A59
:1018E00040F00100A062204600F08CFA03E0206A7C
:1018F000016B2846884770BD70B505466C6AA06AC2
:1019000040F04000A062E06A40F00400E06220463F
:1019100000F085FA70BD70B50446656A284600F08F
:101920007DFA70BD38B5044600250020009020687F
:10193000806800F0010078BB2068806840F00100FA
:1019400021688860194800681949B0FBF1F00090DF
:1019500002E00098401E009000980028F9D101F0A4
:101960000BFA054619E001F007FA401B022814D9CA
:101970002068806800F0010078B9A06A40F010008B
:10198000A062E06A40F00100E06200BF002084F83D
:10199000240000BF012038BD05E02068806800F009
:1019A00001000028DFD00020F5E700000C00002037
:1019B00040420F0006480078022803D10020044965
:1019C000087004E002480078401C01490870704724
:1019D0003C0000201CB50DE09DF80000012803D15B
:1019E000019800F06DF805E09DF80000022801D193
:1019F000FFF7E0FF684602F00FFF0028ECD11CBDA6
:101A000010B50A480A49086000200A4908600A49D6
:101A100008600A4908600A49087001F0ADF90949EF
:101A2000086002F0F7FC02F065FE10BD0000C8423D
:101A30002C0000203000002038000020340000205E
:101A40003C0000204000002010B501F095F904464C
:101A5000FFF7C0FF14480068201A642800D210BDA8
:101A60001148046002F0F6FCD8B102F0CDFC0F4939
:101A700008600F4801680D48006802F08BFF0D49AF
:101A800008600D4801780B48006802F0B7FF0B4969
:101A9000086009480278084601680448006802F0B6
:101AA000D1FE00BFDBE70000400000203000002036
:101AB0002C000020380000203C00002034000020D2
:101AC00010B504464FF07E51204603F089FC04D344
:101AD0000549204603F084FD01D2002010BD0348D3
:101AE00004600120FAE7000000007A442C00002086
:101AF00000BFFEE710B5024800F0A1FB10BD0000DA
:101B0000E800002010B5024800F056FE10BD0000AD
:101B1000A400002010B5024800F04EFE10BD0000E9
:101B2000C002002010B5024800F046FE10BD0000C3
:101B30007C02002010B5024800F03EFE10BD0000FF
:101B40003802002010B5024800F036FE10BD00003B
:101B5000F401002030B590F840500124AC40C56B32
:101B60006C60046863604468102C04D10468A2604F
:101B70000468E16003E00468A1600468E26030BDCD
:101B8000704772B600BFFEE7F8B504460026002095
:101B9000009000BF94F82400012801D10220F8BD74
:101BA000012084F8240000BF2046FFF74EFE0646C1
:101BB0002046FFF7B7FE0646002E69D1A06A20F442
:101BC000885040F00200A062022001F0CFFA3449B0
:101BD0000968B1FBF0F04000009002E00098401E60
:101BE000009000980028F9D12068806840F0080033
:101BF0002168886001F0C0F8054616E001F0BCF8E5
:101C0000401B0A2811D92068806800F0080060B1E4
:101C1000A06A20F0020040F01000A06200BF002087
:101C200084F8240000BF0120B9E72068806800F034
:101C300008000028E2D12068806840F00400216894
:101C4000886001F099F8054616E001F095F8401B10
:101C50000A2811D92068806800F0040060B1A06AE9
:101C600020F0020040F01000A06200BF002084F8C5
:101C7000240000BF012092E72068806800F0040083
:101C80000028E2D1A06A20F0020040F00100A0622A
:101C900000BF002084F8240000BF30467FE700002A
:101CA0000C00002038B5024600230020009000BF41
:101CB00092F82400012801D1022038BD012082F8C9
:101CC000240000BF4868072812D21068406B0C79C6
:101CD000641E04EB84051F24AC40A0430D796D1EE7
:101CE00005EB85050C68AC4020431468606327E071
:101CF00048680D2812D21068006B0C79E41F04EBC1
:101D000084051F24AC40A0430D79ED1F05EB85052C
:101D10000C68AC4020431468206311E01068C06A6E
:101D20000C790D3C04EB84051F24AC40A0430D79D5
:101D30000D3D05EB85050C68AC4020431468E0625E
:101D400008680A2812D31068C0680C780A3C04EBB3
:101D500044050724AC40A0430D780A3D05EB45053A
:101D60008C68AC4020431468E0600FE010680069A4
:101D70000C7804EB44050724AC40A0430D7805EB38
:101D800045058C68AC402043146820610868102821
:101D900002D00868112827D1174C1068A0421ED124
:101DA0001068806800F40000F0B91068806840F4A2
:101DB00000001468A0600868102815D10F4800685A
:101DC0000F4CB0FBF4F000EB80004000009002E00C
:101DD0000098401E009000980028F9D104E0906A15
:101DE00040F020009062012300BF002082F8240010
:101DF00000BF184661E70000002401400C000020ED
:101E000040420F00034A0168914202D10121024A77
:101E10001170704700240140100000207047704787
:101E20002DE9F0410446002700250026A84614B9F4
:101E30000120BDE8F081A06810B1207D00B100BF95
:101E4000A06A30B90020E06284F82400204600F047
:101E500089F82046FFF7F9FC0746A06A00F0100059
:101E6000002873D1002F71D1A06A20F4885040F06F
:101E70000200A062E16960680843217B40EA4100FA
:101E80000643A068B0F5807F02D0A068012802D187
:101E90004FF4807000E000200543207D012811D11F
:101EA000207B38B9A069401E4FF4006141EA403000
:101EB000054307E0A06A40F02000A062E06A40F01D
:101EC0000100E0622068406820F4694028432168EE
:101ED0004860206880682149084030432168886054
:101EE000A068B0F5807F02D0A068012802D14FF42D
:101EF000807000E00020B0F5807F03D1208A401E72
:101F00004FEA00582068C06A20F4700040EA0800D8
:101F10002168C8622068806811490840B04208D131
:101F20000020E062A06A20F0020040F00100A06200
:101F300011E0A06A20F0020040F01000A062E06A08
:101F400040F00100E062012705E0FFE7A06A40F0F1
:101F50001000A062012738466BE70000FDF7E1FFA3
:101F6000FE0E1FFF10B586B00446002002900390BD
:101F7000049005904A492068884253D100BF4948DF
:101F8000806940F40070474988610846806900F420
:101F90000070019000BF00BF00BF0846806940F09C
:101FA000040088610846806900F00400019000BFC9
:101FB00000BF00BF0846806940F0080088610846FD
:101FC000806900F00800019000BF00BFFF20029070
:101FD0000320039002A9344800F03EFD0320029044
:101FE000039002A9314800F037FD314831490860BB
:101FF0000020486000212F4881608021C160490095
:10200000016189004161002181614FF40051C1618A
:1020100000F0A0FC08B1FFF7B4FD00BF2548206226
:1020200044623AE024492068884236D100BF1D4806
:10203000806940F480601B4988610846806900F42B
:102040008060019000BF00BF00BF0846806940F07B
:10205000040088610846806900F00400019000BF18
:1020600000BF00BF0846806940F00800886108464C
:10207000806900F00800019000BF00BFFF200290BF
:102080000320039002A9084800F0E6FC0320029018
:10209000039002A9054800F0DFFC06B010BD000067
:1020A000002401400010024000080140000C0140E3
:1020B00008000240A4000020002801402DE9F04162
:1020C00004460D461646002757492068884203D02B
:1020D00056492068884205D15348001D006800F425
:1020E000702000E0002000287ED100BF94F824007A
:1020F000012802D10220BDE8F081012084F82400EB
:1021000000BF2046FFF70EFC0746002F6DD1A06AE6
:1021100040F60161884340F48070A0624349206822
:10212000884209D14048001D006800F4702008B9B9
:10213000012002E0002000E0012078B1A06A20F434
:102140008010A0622068406800F4806000B3A06A3C
:1021500020F4005040F48050A06219E0A06A40F4DE
:102160008010A06230492068884203D02F4920683F
:10217000884205D12C48001D006800F4806000E012
:10218000002028B1A06A20F4005040F48050A062E2
:10219000A06A00F4805020B1E06A20F00600E062FE
:1021A00001E00020E06200BF002084F8240000BFAE
:1021B0001F48216A88621F48216AC8621E48216A36
:1021C00008636FF00200216808602068806840F4AE
:1021D000807021688860226802F14C0133462A46EB
:1021E000206A00F0EBFB01E01AE014E02068806850
:1021F00000F46020B0F5602F06D12068806840F4BC
:10220000A000216888600CE02068806840F480109D
:102210002168886005E000BF002084F8240000E009
:102220000127384667E700000024014000280140EC
:10223000A718000817190008F918000870472DE9B9
:10224000F05F04460025206846692068D0F80490B5
:10225000206887682068D0F80CA02068D0F810B0FB
:102260002068D0F8188006F00100002855D007F04B
:102270000100C0B101202168886007F0020018B198
:10228000204600F00FFA0EE007F0040010B145F40C
:10229000006508E007F0080010B145F4805502E041
:1022A000204600F0FEF907F48070C8B14FF480704A
:1022B0002168886007F4007018B1204600F0F4F936
:1022C0000EE007F4806010B145F4005508E007F413
:1022D000006010B145F4804502E0204600F0E3F9CB
:1022E00007F48030C8B14FF480302168886007F46B
:1022F000003018B1204600F0D9F90EE007F4802034
:1023000010B145F4004508E007F4002010B145F491
:10231000803502E0204600F0C8F906F0080038B128
:102320000AF0100020B145F4007510202168C86043
:1023300006F0040040B10AF0080028B10820216826
:10234000C860204600F0A8F906F0020038B1206805
:10235000C06800F0030010B1204600F09EF906F0BE
:10236000400038B10BF0100020B145F4806510201A
:102370002168086106F0200040B10BF0080028B188
:10238000082021680861204600F088F906F0100056
:1023900038B12068006900F0030010B1204600F059
:1023A0007EF906F4003040B109F0100028B1102089
:1023B00021684860204600F073F906F4803040B18F
:1023C00009F0080028B1082021684860204600F084
:1023D0006EF906F4004088B309F0040078B306F4FF
:1023E000807020B108F0010008B145F0010506F445
:1023F000007020B108F0020008B145F0020506F4B3
:10240000806020B108F0040008B145F0040506F42E
:102410000060A0B108F0700088B108F0700040289A
:1024200017D006DC10280BD020280CD0302819D16A
:102430000CE0502810D0602814D110E01DE019E005
:1024400045F008050FE045F010050CE045F02005CB
:1024500009E045F0400506E045F0800503E045F45D
:10246000807500E000BF00BF2068806920F0700028
:10247000216888610420216848602DB1606A284382
:1024800060622046FFF7DAFEBDE8F09F70B50446B3
:102490000CB9012070BD94F8200010B9204600F05E
:1024A000AFF82068006840F001002168086000F083
:1024B00063FC05460DE000F05FFC401B0A2808D9CC
:1024C000606A40F400306062052084F8200001203A
:1024D000E0E72068406800F001000028EBD02068A9
:1024E000006820F002002168086000F045FC054605
:1024F0000DE000F041FC401B0A2808D9606A40F456
:1025000000306062052084F820000120C2E72068C6
:10251000406800F002000028EBD1207E012806D19F
:102520002068006840F080002168086005E02068AD
:10253000006820F0800021680860607E012806D1D4
:102540002068006840F040002168086005E02068CD
:10255000006820F0400021680860A07E012806D1B4
:102560002068006840F020002168086005E02068CD
:10257000006820F0200021680860E07E012806D174
:102580002068006820F010002168086005E02068DD
:10259000006840F0100021680860207F012806D103
:1025A0002068006840F008002168086005E02068A5
:1025B000006820F0080021680860607F012806D1CB
:1025C0002068006840F004002168086005E0206889
:1025D000006820F0040021680860D4E90201084383
:1025E00021690843616908436168491E08432168FD
:1025F000C86100206062012084F82000002049E7C3
:1026000010B586B004460020029003900490059017
:102610001E492068884236D100BF1D48C06940F07D
:1026200000701B49C8610846C06900F00070019045
:1026300000BF00BF00BF0846806940F00400886109
:102640000846806900F00400019000BF00BFC81474
:10265000029000200390049002A90E4800F0FCF9BB
:102660004FF480500290022003900320059002A9AD
:10267000084800F0F1F900221146152000F024FD71
:10268000152000F011FD06B010BD000000640040F0
:1026900000100240000801407047704770477047C3
:1026A0007047704770477047704770477047704772
:1026B0000146002291F82100022808D004208863F6
:1026C00000BF002081F8200000BF0120704708688B
:1026D000006820F00E000B6818600868006820F0A1
:1026E00001000B68186091F8403001209840CB6BD6
:1026F0005860012081F8210000BF002081F82000EF
:1027000000BF1046E2E7000070B50446002594F8CB
:102710002100022803D00420A063012548E020689E
:10272000006820F00E00216808602068006820F032
:102730000100216808601F492068884201D10120FA
:1027400026E01C4914312068884201D110201FE086
:10275000184928312068884201D1801518E01549B0
:102760003C312068884201D1801411E01149503178
:102770002068884202D14FF4803009E00D4964316D
:102780002068884202D14FF4801001E04FF0807041
:10279000084908394860012084F8210000BF002062
:1027A00084F8200000BF606B10B12046616B884741
:1027B000284670BD0800024070B50446E06B05680D
:1027C0002068066894F840100420884028400028BB
:1027D00046D006F00400002842D02068006800F0CF
:1027E000200028B92068006820F0040021680860F3
:1027F00057492068884201D1042027E05449143108
:102800002068884201D1402020E0514928312068C9
:10281000884201D1001519E04D493C3120688842B9
:1028200002D14FF4804011E049495031206888427C
:1028300002D14FF4802009E0454964312068884284
:1028400002D14FF4800001E04FF080604049083928
:102850004860E06A00287AD02046E16A884776E03E
:1028600094F84010022088402840A0B306F00200EF
:1028700088B32068006800F0200040B92068006834
:1028800020F00A0021680860012084F82100304906
:102890002068884201D1022028E02D4914312068A7
:1028A000884201D1202021E029492831206888422E
:1028B00001D140151AE026493C312068884202D1F6
:1028C0004FF4005012E0224950312068884203D171
:1028D0004FF400300AE017E01D4964312068884257
:1028E00002D14FF4001001E04FF000701849083990
:1028F000486000BF002084F8200000BFA06A30B309
:102900002046A16A884722E094F8401008208840B9
:102910002840E0B106F00800C8B12068006820F047
:102920000E002168086094F8401001208840E16B97
:1029300048600120A06384F8210000BF002084F8D3
:10294000200000BF206B10B12046216B884770BD6E
:10295000080002400146002209B901207047164BC9
:102960000868C01A1423B0FBF3F080000864124812
:102970000838C863022081F821000868026843F61D
:10298000F0708243D1E901031843CB6818430B6907
:1029900018434B6918438B691843CB6918430243AA
:1029A0000868026000208863012081F8210000206F
:1029B00081F8200000BFD1E7080002402DE9F04176
:1029C00004460D4616461F464FF0000800BF94F817
:1029D0002000012802D10220BDE8F081012084F806
:1029E000200000BF94F8210001282CD1022084F897
:1029F00021000020A0632068006820F00100216809
:102A000008603B46324629462046FFF7A3F8E06AB5
:102A100030B12068006840F00E00216808600BE0CB
:102A20002068006820F004002168086020680068C1
:102A300040F00A00216808602068006840F001004A
:102A40002168086006E000BF002084F8200000BF75
:102A50004FF002084046BFE72DE9F8470346002241
:102A600094466EE14FF0010808FA02F4D1F80080B4
:102A700008EA0400A0427DD1DFF8DCA2D1F804808E
:102A8000A8EB0A09D0453AD014DCB8F1030F50D0B6
:102A900009DCB8F1000F31D0B8F1010F1CD0B8F14A
:102AA000020F49D120E0B8F1110F18D0B8F1120F80
:102AB00042D11EE0B9F5881F25D006DCB9F5803F6C
:102AC00020D0B9F5801F37D11AE0B9F5001F18D012
:102AD000B9F5041F30D117E0D1F80CC02DE0D1F8C2
:102AE0000C8008F1040C28E0D1F80C8008F1080CE7
:102AF00023E0D1F80C8008F10C0C1EE000BF00BFF1
:102B000000BF00BF00BF00BFD1F80880B8F1000FC0
:102B100002D14FF0040C0BE0D1F80880B8F1010F9E
:102B200003D14FF0080C1C6102E04FF0080C5C610F
:102B300003E04FF0000C00E000BF00BFFF2801D809
:102B4000984601E003F104084646FF2802D84FEA00
:102B5000820803E0A2F108084FEA88084746D6F841
:102B600000804FF00F0909FA07F928EA09080CFA62
:102B700007F900E088E048EA0908C6F80080D1F8C3
:102B8000048008F08058B8F1805F7DD100BFDFF885
:102B9000CC81D8F8188048F00108DFF8C091C9F856
:102BA0001880C846D8F8188008F00108CDF80080D1
:102BB00000BF00BF4FEAB9384FEA920958F82950D0
:102BC0004FEA82784FEA18794FF00F0808FA09F8AF
:102BD00025EA0805DFF88881434502D14FF0000857
:102BE00016E0DFF88081434502D14FF001080FE085
:102BF000DFF87481434502D14FF0020808E0DFF8A6
:102C00006C81434502D14FF0030801E04FF0040806
:102C10004FEA82794FEA197908FA09F848EA050576
:102C2000DFF84C814FEA920948F82950D1F8048026
:102C300008F48018B8F5801F0AD1DFF83881D8F879
:102C4000008048EA0008DFF82C91C9F8008009E00C
:102C5000DFF82081D8F8008028EA0008DFF8149116
:102C6000C9F80080D1F8048008F40018B8F5001FF6
:102C700010D1DFF8008108F10408D8F8008048EA94
:102C80000008DFF8F09000E05AE009F10409C9F803
:102C900000800DE0DFF8DC8008F10408D8F800803F
:102CA00028EA0008DFF8CC9009F10409C9F800808F
:102CB000D1F8048008F40038B8F5003F0ED1DFF8F1
:102CC000B480A8F10408D8F8008048EA0008DFF8CA
:102CD000A490A9F10409C9F800800DE0DFF8948000
:102CE000A8F10408D8F8008028EA0008DFF88490EA
:102CF000A9F10409C9F80080D1F8048008F48038EB
:102D0000B8F5803F0ED1DFF86C80A8F10808D8F83C
:102D1000008048EA0008DFF85C90A9F10809C9F8CA
:102D200000800DE0DFF84C80A8F10808D8F800809A
:102D300028EA0008DFF83C90A9F10809C9F80080EA
:102D4000521CD1F8008028FA02F8B8F1000F7FF485
:102D500089AEBDE8F88700000000111000100240A5
:102D600000080140000C0140001001400014014027
:102D70000800014008040140014800687047000055
:102D80000000002070B504460CB9012070BD94F815
:102D90003D0028B9002084F83C00204600F0DAF815
:102DA000242084F83D002068006820F0010021689C
:102DB00008602068006840F40040216808602068CE
:102DC000006820F400402168086000F0B1FB05466F
:102DD0005C496068884206D85B48854201D2012080
:102DE00007E0002005E05948854201D2012000E0BB
:102DF0000020012800D1C9E75548B5FBF0F620684E
:102E0000406820F03F003043216848604D496068C9
:102E1000884201D8701C07E04FF4967070434FF45D
:102E20007A71B0FBF1F0401C2168096A21F03F0182
:102E300008432168086243496068884214D8681EC4
:102E400061684900B0FBF1F0401CC0F30B0004289E
:102E500001D204203DE0681E61684900B0FBF1F03A
:102E6000401CC0F30B0034E0A06838B9681E6168EC
:102E700001EB4101B0FBF1F0401C0AE0681E616803
:102E800001EBC10202EB0111B0FBF1F0401C40F478
:102E90008040C0F30B0008B901201AE0A06848B9CF
:102EA000681E616801EB4101B0FBF1F0401CC0F30A
:102EB0000B000CE0681E616801EBC10202EB01111E
:102EC000B0FBF1F0401CC0F30B0040F4804040F434
:102ED00000402168C9694CF6FF729143084321689C
:102EE000C861D4E9070108432168096821F0C001DD
:102EF000084321680860D4E9031008432168896801
:102F000048F2FF329143084321688860D4E9050103
:102F100008432168C96821F0FF0108432168C8609F
:102F20002068006840F001002168086000202064EB
:102F3000202084F83D000020206384F83E0000BF7C
:102F400024E70000A086010080841E0000093D00E7
:102F500040420F0010B586B0044600200290039056
:102F60000490059015492068884225D100BF144877
:102F7000806940F00800124988610846806900F0C5
:102F80000800019000BF00BFC020029012200390F3
:102F90000320059002A90B48FFF75EFD00BF08481B
:102FA000C06940F400100649C8610846C06900F4D1
:102FB0000010019000BF00BF06B010BD00540040DB
:102FC00000100240000C01400348006803490978E2
:102FD00008440149086070470000002008000020F4
:102FE00010B50848006840F010000649086003204A
:102FF00000F0A8F80F2000F007F800F02BF80020F0
:1030000010BD00000020024070B504460E48007854
:103010004FF47A71B1FBF0F00C490968B1FBF0F59F
:10302000284600F00FFD08B1012070BD102C07D21A
:1030300000222146501E00F047F80548046001E0D8
:103040000120F2E70020F0E7080000200C0000203B
:103050000400002008B500BF1148806940F001005D
:103060000F4988610846806900F00100009000BFA8
:1030700000BF00BF0846C06940F08050C8610846E4
:10308000C06900F08050009000BF00BF00BF05493C
:10309000486820F0E06040F00070486000BF08BD64
:1030A000001002400000014001460846002809DBEC
:1030B00000F01F0301229A4043099B0003F1E02323
:1030C000C3F8002100BF70472DE9F05F80460D4630
:1030D0001646002701F0A4FF074639462A46334624
:1030E00001F00700C0F1070ABAF1040F02D94FF04E
:1030F000040A01E0C0F1070AD14600F1040ABAF15E
:10310000070F02D24FF0000A01E0A0F1030AD446F3
:103110004FF0010A0AFA09FAAAF1010A0AEA020AB8
:103120000AFA0CFA4FF0010B0BFA0CFBABF1010B96
:103130000BEA030B4AEA0B042146404601F078FFF4
:10314000BDE8F09F00BF00F00702064B19684FF67C
:10315000FF031940044B0B4343EA0221014B196062
:1031600000BF70470CED00E00000FA052DE9F047C4
:1031700006464FF00008002500270024A146012E36
:1031800031D0022E56D0102E5FD1324844680068EC
:1031900000F0807008B33048C4F38341475C04F406
:1031A000803078B12B484068C0F340402B4911F87B
:1031B000008004F4803040B12948B0FBF8F000FBF7
:1031C00007F502E0274807FB00F52248406800F4B5
:1031D0008000B0F5800F01D1A94603E0680003210B
:1031E000B0FBF1F932E01B48046A04F44070B0F51A
:1031F000807F05D104F0020010B14FF4004918E0BF
:1032000004F44070B0F5007F07D11248406A00F026
:10321000020010B149F640490BE004F44070B0F5EB
:10322000407F06D10B48006800F4003008B14FF22F
:1032300024490BE000F08CF906494968C1F381315B
:10324000491C4900B0FBF1F900E000BF00BF48464F
:10325000BDE8F087001002404857000858570008A2
:1032600000127A0000093D00F8B50446002600254A
:10327000207800F0010000286BD000274348C06987
:1032800000F0805070B900BF4048C06940F08050E5
:103290003E49C8610846C06900F08050009000BFF8
:1032A00000BF01273A48006800F48070B0B9384880
:1032B000006840F4807036490860FFF75DFD0646FF
:1032C00006E0FFF759FD801B642801D90320F8BDF3
:1032D0002F48006800F480700028F2D02B48006A64
:1032E00000F440752DB3A08800F44070A84220D0AF
:1032F0002648006A20F44075012026490860002015
:1033000008602248056205F0010090B1FFF734FD26
:10331000064608E0FFF730FD801B41F28831884205
:1033200001D90320D3E71948006A00F00200002801
:10333000F0D01648006A20F44070616808431349D1
:103340000862012F04D10846C06920F08050C8618E
:1033500000BF207800F00200022807D10B48406827
:1033600020F44040A168084308494860207800F0F4
:103370001000102807D10548406820F48000E1685B
:103380000843024948600020A1E700000010024005
:10339000007000404004424270B504460D460CB92E
:1033A000012070BD5A48006800F00700A8420ED204
:1033B0005748006820F00700284355490860084630
:1033C000006800F00700A84201D00120E9E720785A
:1033D00000F0020002281DD1207800F0040004282B
:1033E00005D14C48406840F4E0604A494860207884
:1033F00000F00800082805D14648406840F46050B5
:10340000444948604348406820F0F000A168084300
:1034100040494860207800F0010078B360680128D6
:1034200006D13C48006800F4003090B90120B8E7AC
:103430006068022806D13748006800F0007040B983
:103440000120AEE73348006800F0020008B901200F
:10345000A7E73048406820F00300616808432D4921
:103460004860FFF789FC064609E0FFF785FC801BF2
:1034700041F28831884202D9032092E707E02548CB
:10348000406800F00C006168B0EB810FEDD120487E
:10349000006800F00700A8420ED91D48006820F01F
:1034A000070028431A4908600846006800F0070032
:1034B000A84201D0012074E7207800F0040004281D
:1034C00007D11448406820F4E060E16808431149DE
:1034D0004860207800F00800082808D10D484068AE
:1034E00020F46050216940EAC1000A49486000F0B8
:1034F0003FF808494968C1F30311074A515CC840C5
:103500000649086006480068FFF77EFD002048E78E
:1035100000200240001002405A5700080C00002012
:103520000400002001480068704700000C000020E3
:1035300000B5FFF7F7FF04494968C1F30221034AC8
:10354000515CC84000BD0000001002406A570008EE
:1035500000B5FFF7E7FF04494968C1F3C221034AF8
:10356000515CC84000BD0000001002406A570008CE
:1035700070B500210022002400230020134D69684B
:1035800001F00C05F5B1042D02D0082D19D101E090
:103590000F4819E00F4DC1F38346AB5D01F4803550
:1035A00055B10A4D6D68C5F340450B4E725D084D2F
:1035B0005D43B5FBF2F402E0084D03FB05F4204641
:1035C00002E000BF024800BF00BF70BD0010024013
:1035D00000127A00365700084657000800093D00DF
:1035E000F8B504460CB90120F8BD207800F00100C0
:1035F000002878D0F848406800F00C0004280CD06F
:10360000F548406800F00C00082811D1F2484068E5
:1036100000F48030B0F5803F0AD1EF48006800F434
:10362000003000285FD0606800285CD10120DBE713
:1036300000BF6068B0F5803F06D1E748006840F4FD
:103640008030E549086028E0606858B9E2480068C1
:1036500020F48030E04908600846006820F48020AB
:1036600008601AE06068B0F5A02F0BD1DA48006856
:1036700040F48020D84908600846006840F4803053
:1036800008600AE0D448006820F48030D24908601D
:103690000846006820F48020086000BF606888B198
:1036A000FFF76AFB054606E0FFF766FB401B642850
:1036B00001D9032098E7C848006800F400300028CA
:1036C000F2D010E0FFF758FB054606E0FFF754FB89
:1036D000401B642801D9032086E7BF48006800F436
:1036E00000300028F2D1207800F00200022857D1E3
:1036F000B948406800F00C0050B1B748406800F08D
:103700000C00082818D1B448406800F4803098B9FB
:10371000B148006800F0020020B12069012801D002
:10372000012061E7AC48006820F0F800616940EAD8
:10373000C100A949086033E02069E8B10120A74928
:103740000860FFF719FB054606E0FFF715FB401B75
:10375000022801D9032047E79F48006800F00200D3
:103760000028F2D09C48006820F0F800616940EA27
:10377000C1009949086013E0002098490860FFF7EC
:10378000FBFA054606E0FFF7F7FA401B022801D9CD
:10379000032029E79048006800F002000028F2D1D9
:1037A000207800F0080008282DD1A069B8B10120C8
:1037B0008B490860FFF7E0FA054606E0FFF7DCFA00
:1037C000401B022801D903200EE78348406A00F01D
:1037D00002000028F2D0012000F038FF13E00020A2
:1037E0007F490860FFF7C8FA054606E0FFF7C4FA0C
:1037F000401B022801D90320F6E67748406A00F012
:1038000002000028F2D1207800F00400042873D1CF
:1038100000277148C06900F0805070B900BF6E4841
:10382000C06940F080506C49C8610846C06900F02A
:103830008050009000BF00BF01276A48006800F474
:103840008070B0B96748006840F4807065490860CE
:10385000FFF792FA054606E0FFF78EFA401B642850
:1038600001D90320C0E65F48006800F4807000289A
:10387000F2D000BFE068012806D15748006A40F046
:1038800001005549086227E0E06858B95248006ACB
:1038900020F00100504908620846006A20F0040048
:1038A000086219E0E06805280BD14B48006A40F037
:1038B0000400494908620846006A40F001000862B5
:1038C0000AE04548006A20F00100434908620846C2
:1038D000006A20F00400086200BFE068A0B1FFF7B2
:1038E0004BFA054609E0FFF747FA401B41F28831E1
:1038F000884202D9032077E622E03748006A00F0C8
:1039000002000028EFD012E0FFF736FA054608E083
:10391000FFF732FA401B41F28831884201D9032077
:1039200062E62D48006A00F002000028F0D1012F65
:1039300005D12948C06920F080502749C86100BFDF
:10394000E069C8B32448406800F00C00082860D043
:10395000E069022848D1002020490866FFF70CFAE8
:10396000054606E0FFF708FA401B022801D90320AC
:103970003AE61948006800F000700028F2D1206A89
:10398000B0F5803F07D11448406820F40030A168AA
:10399000084311494860D4E9080108430E494968C1
:1039A00021F4741108430C49486001200B49086652
:1039B000FFF7E2F9054607E03DE0FFF7DDF9401BC0
:1039C000022801D903200FE60348006800F00070C8
:1039D0000028F2D02FE00000001002400000424218
:1039E0008004424200700040002014490866FFF73E
:1039F000C3F9054606E0FFF7BFF9401B022801D9CD
:103A00000320F1E50E48006800F000700028F2D1B4
:103A100011E0E069012800D1E6E50948466806F4AE
:103A20008031206A814204D106F47011606A8142BB
:103A300001D00120D8E50020D6E500000000424278
:103A40000010024070B504462546681EB0F1807F24
:103A500001D301200FE0681E4FF0E02148610F21E3
:103A60004FF0FF3001F0E4FA00204FF0E0218861D0
:103A700007200861002070BDF8B504460D461646C3
:103A800094F8420020282DD105B10EB90120F8BDCF
:103A9000012020630020606332462946204601F061
:103AA00005FA0746206B012819D100BF00200090BD
:103AB00020680068009020684068009000BF00BF48
:103AC00000BF00BF21680C3151E8001F41F0100019
:103AD00021680C3141E80002002AF3D100E00127FF
:103AE0003846D4E70220D2E770B504460D460549B2
:103AF0002068884205D12946034800F0BDFD00F04A
:103B0000EBFE70BD003801401A0300207047000032
:103B10002DE9F84F0446206805682068C6682068CB
:103B200047694FF00009CA4605F00F09B9F1000FC7
:103B30000AD105F0200038B106F0200020B120465F
:103B400001F0B8F8BDE8F88FB9F1000F7BD007F0AD
:103B5000010018B906F49070002874D005F0010037
:103B600030B106F4807018B1606C40F00100606400
:103B700005F0040030B107F0010018B1606C40F0AE
:103B80000200606405F0020030B107F0010018B1D6
:103B9000606C40F00400606405F0080048B106F075
:103BA000200010B907F0010018B1606C40F0080067
:103BB0006064606C002845D005F0200028B106F054
:103BC000200010B1204601F075F820684069C0F36C
:103BD000801A606C00F0080010B9BAF1000F2CD008
:103BE000204601F00EF82068406900F0400000B364
:103BF00000BF00BF2168143151E8001F21F04000D0
:103C00002168143141E80002002AF3D100BFE06BC3
:103C100050B17748E16B4863E06BFEF775FD88B102
:103C2000E06B416B88470DE02046FFF76FFF09E02E
:103C300009E02046FFF76AFF04E02046FFF766FF31
:103C4000002060647EE7206B012877D105F010002A
:103C5000002873D006F010000028FAD000BF002022
:103C6000009020680068009020684068009000BFC5
:103C700000BF2068406900F0400000285FD0E06B82
:103C8000006840681FFA80F8B8F1000F55D0A08D89
:103C9000404552DDA4F82E80E06B8069202843D097
:103CA00000BF00BF21680C3151E8001F21F4807073
:103CB00021680C3141E80002002AF3D100BF00BFA7
:103CC00000BF2168143151E8001F21F00100216874
:103CD000143141E80002002AF3D100BF00BF00BF49
:103CE0002168143151E8001F21F04000216814318F
:103CF00041E80002002AF3D100BF202084F84200EE
:103D00000020206300BF00BF21680C3151E8001F74
:103D100021F0100021680C3141E80002002AF3D1A3
:103D200000BFE06BFEF7C4FC02206063A08DE28D53
:103D3000801A81B22046FFF7D7FE03E742E0A08D4C
:103D4000E18D401A1FFA80F8E08DD0B3B8F1000F72
:103D500037D000BF00BF21680C3151E8001F21F4AB
:103D6000907021680C3141E80002002AF3D100BFB5
:103D700000BF00BF2168143151E8001F21F001008D
:103D80002168143141E80002002AF3D100BF20204D
:103D900084F842000020206300BF00BF21680C317E
:103DA00051E8001F21F0100021680C3141E80002A9
:103DB000002AF3D100BF0220606341462046FFF78E
:103DC00093FEBFE605F0800030B106F0800018B128
:103DD000204601F0CFF8B5E605F0400030B106F01E
:103DE000400018B1204600F042FFABE600BFA9E654
:103DF000614A000810B504460CB9012010BDA06945
:103E000000B100E000BF94F8410028B9002084F818
:103E10004000204600F02AF8242084F84100206861
:103E2000C06820F400502168C860204600F0C0FF40
:103E30002068006920F4904021680861206840698A
:103E400020F02A00216848612068C06840F40050D2
:103E50002168C86000206064202084F8410084F854
:103E600042000020606300BFC8E7000010B586B0C4
:103E70000446002002900390049005906F4920684A
:103E800088426AD100BF6E48806940F480406C4926
:103E900088610846806900F48040019000BF00BF3F
:103EA00000BF0846806940F00400886108468069C8
:103EB00000F00400019000BF00BF481502900220EE
:103EC00003900320059002A95E48FEF7C5FD4FF45C
:103ED0008060029000200390049002A95948FEF7E8
:103EE000BBFD5948594908600020486000215748E7
:103EF00081608021C1600021016141618161C161F6
:103F0000FEF728FD08B1FDF73CFE00BF4F48E06317
:103F1000446200BF4C4814384D4908601020486086
:103F200000214B4881608021C16000210161416115
:103F30008161C161FEF70EFD08B1FDF722FE00BFF1
:103F40004348A063446200BF002211462520FFF7CA
:103F5000BBF82520FFF7A8F86EE03E4920688842AC
:103F60006AD100BF3648C06940F480203449C86136
:103F70000846C06900F48020019000BF00BF00BF68
:103F80000846806940F0080088610846806900F0B2
:103F90000800019000BF00BF0815029002200390A6
:103FA0000320059002A92C48FEF756FD4FF400604F
:103FB000029000200390049002A92748FEF74CFDD0
:103FC00021482838254908600020486000212348FE
:103FD00081608021C1600021016141618161C16115
:103FE000FEF7B8FC08B1FDF7CCFD00BF1B48E0634D
:103FF000446200BF14483C381949086010204860EA
:104000000021174881608021C16000210161416168
:104010008161C161FEF79EFC08B1FDF7B2FD00BFF2
:104020000F48A063446200BF002211462720FFF71B
:104030004BF82720FFF738F806B010BD00380140D4
:10404000001002400008014058000240F401002026
:104050003802002000480040000C01407C02002093
:10406000C002002070477047F7B50446154694F823
:104070004100202836D1019800B10DB90120FEBDC4
:1040800001982062A584E58400206064212084F8E2
:1040900041001548A16B88621448A16BC86214489E
:1040A000A16B08630020A16B486301AE23681A1D51
:1040B00031682B46A06BFEF781FC6FF04000216851
:1040C000086000BF00BF2168143151E8001F41F0B3
:1040D00080002168143141E80002002AF3D100BFBA
:1040E0000020CCE70220CAE79D4B0008F54B0008F2
:1040F000754A0008034A0168914202D10021024A30
:10410000117070470038014020000020704700BF48
:10411000FEE700000EB50020009001900290494893
:104120004949086081154848816000210173017583
:104130004FF46021C1610020434948600B2142488F
:104140000161FDF76DFE08B1FDF71BFD0020009039
:10415000012001900720029069463B48FDF7A2FD2F
:1041600008B1FDF70EFD0120009002200190694684
:104170003548FDF797FD08B1FDF703FD02200090DB
:104180000320019069463048FDF78CFD08B1FDF72A
:10419000F8FC032000900420019069462A48FDF7AE
:1041A00081FD08B1FDF7EDFC042000900520019091
:1041B00069462548FDF776FD08B1FDF7E2FC0520CC
:1041C00000900620019069461F48FDF76BFD08B17D
:1041D000FDF7D7FC062000900720019069461A4899
:1041E000FDF760FD08B1FDF7CCFC0720009008202A
:1041F000019069461448FDF755FD08B1FDF7C1FC73
:10420000082000900920019069460F48FDF74AFDFB
:1042100008B1FDF7B6FC092000900A20019069461C
:104220000948FDF73FFD08B1FDF7ABFC11200090F8
:104230000B20019069460448FDF734FD08B1FDF7F5
:10424000A0FC0EBD002401404400002010B50B4826
:104250000B49086010204860002109488160C16056
:1042600001614161017641768176C17601774177BE
:10427000FEF70CF908B1FDF784FC10BD00640040A6
:10428000E800002008B500BF1A48406940F001006E
:10429000184948610846406900F00100009000BFDD
:1042A00000BF002211460B20FEF70EFF0B20FEF789
:1042B000FBFE002211460C20FEF706FF0C20FEF745
:1042C000F3FE002211460D20FEF7FEFE0D20FEF744
:1042D000EBFE002211460E20FEF7F6FE0E20FEF742
:1042E000E3FE002211460F20FEF7EEFE0F20FEF740
:1042F000DBFE08BD0010024008B500BF134880690E
:1043000040F02000114988610846806900F02000D3
:10431000009000BF00BF00BF0846806940F0040065
:1043200088610846806900F00400009000BF00BF6B
:1043300000BF0846806940F008008861084680692F
:1043400000F00800009000BF00BF08BD0010024050
:1043500010B50B480B4908600B484860002109481C
:104360008160C1604FF48041016100214161816140
:10437000C1610162FEF706FD08B1FDF702FC10BD48
:104380000054004010010020A086010010B50B4829
:104390000B4908604FF4E130486000210848816013
:1043A000C16001610C21416100218161C161FFF7A0
:1043B00021FD08B1FDF7E5FB10BD0000003801400C
:1043C0006401002010B50B480B4908604FF4E13040
:1043D0004860002108488160C16001610C21416191
:1043E00000218161C161FFF705FD08B1FDF7C9FB3F
:1043F00010BD000000480040AC01002000BFFEE7F7
:1044000000BFFEE7704700000148006870470000E9
:104410001400002010B500200849087008490870F1
:104420000849086008490860084908600848FDF71D
:10443000ABFB08B1FDF7A5FB10BD0000100000208C
:104440001100002014000020180000201C00002093
:10445000440000202DE9F04700262548007820B9C7
:1044600000F05AF80020BDE8F0872248007808B92B
:104470000020F8E700201F4908701D4908700A2134
:104480001D4800F08FF880461B48848A5CB32046A4
:1044900000F092FF07463946184800F0B3FE054683
:1044A0001749284601F09CF81DD81649284600F007
:1044B00097FF18D814480560404600F07DFF8146FC
:1044C00011480168484600F0BFFF07460F4900F059
:1044D00099FE0F4908600C480168404600F032F828
:1044E0000C490860012600F017F83046BBE70000D1
:1044F00011000020100000200403002000909945C6
:10450000CDCC2C40666666401C00002000F07F4544
:10451000180000201400002010B500200549087084
:104520000B2205490548FDF7C9FD10B901200449D2
:10453000087010BD1000002004030020440000207B
:10454000110000202DE9F04707460C4600212046C7
:1045500000F046FF02D80020BDE8F087384600F0A2
:104560002BFF8146214600F06FFF8046094900F08D
:1045700049FE05460849284601F064F88046074987
:1045800000F040FE0646064A0021304600F049F899
:10459000E2E7000000F07F459A99193F0AD7A33D52
:1045A0000000F041F0B585B003460C4600250BB184
:1045B0000A2C02D0002005B0F0BD002104E033F841
:1045C00011002DF81100491C0A29F8D3002118E028
:1045D000002211E03DF81270501C3DF81000874297
:1045E00009DD3DF81260501C3DF810002DF8120056
:1045F000501C2DF81060521CC1F109009042E9D8FE
:10460000491C0929E4D3022103E03DF811000544C7
:10461000491C0829F9D3E81C0627B0FBF7F080B243
:10462000C9E770B506460D4614462946304600F0E7
:10463000D7FE01D2284670BD2146304600F0D0FF9B
:1046400001D22046F7E73046F5E7000008B50849F3
:104650000968C9084FF47A72B1FBF2F14143009145
:1046600000BF00BF00994A1E00920029F9D108BD81
:104670000C00002070470000F8B506460C4606B155
:1046800004B9F8BD18A000F047F8C0B90025AC4245
:1046900015DD2A4614A13046FBF722FF78B9621BCC
:1046A00091B270196A4600F049F840B101200F49F3
:1046B00008700098486001200D490870E1E70AA0E1
:1046C00000F02AF870B96CB9224607A13046FBF712
:1046D00007FF38B902200549087000204860012012
:1046E0000349087000BFCCE7000000002400002050
:1046F0002100002010B5002004490870044908700A
:1047000004490870486000F0E7F810BD2000002060
:104710002100002024000020014609B1087808B9D2
:10472000012070470020FCE710B503A0FFF7F4FF5D
:1047300080F0010010BD0000000000002DE9FC5FCA
:1047400005460E4617460024A246002001908046EA
:10475000DFF8BC900DB107B116B90020BDE8FC9F91
:10476000285D2D2803D14FF0010A601C84B212E0AD
:10477000295DA1F1300000F007FE8346254940463F
:1047800000F062FE5946009000F0CEFC8046012009
:104790000190601C84B2B44205DA285D302802DB47
:1047A000285D3928E4DDB44224DA285D2E2821D1A1
:1047B000601C84B216E0295DA1F1300000F0E4FD38
:1047C0004946009000F040FE8346414600F0ACFCB4
:1047D00080460F49484600F037FE8146012001908F
:1047E000601C84B2B44205DA285D302802DB285D03
:1047F0003928E0DD019808B90020AFE7BAF1000FD1
:1048000002D088F0004000E0404638600120A5E773
:10481000CDCCCC3D0000204101460848007800B1D5
:1048200009B900207047064A05CAC1E90002002004
:10483000024A1070024A10700120F3E721000020A4
:10484000240000202DE9F74F86B089469246FFF7F5
:104850006BFF18B9022009B0BDE8F08F1A48007844
:1048600008B10120F7E70FF2640B504600F0E4F8BE
:104870000590484600F02CFC05460E46069800F0D0
:1048800027FC074605985A46CDE90071CDE9025646
:10489000049080210E48FBF7B5FC0446002C01DD96
:1048A000802C01D30320D6E7012007490870A2B26B
:1048B00007490848FFF7D8FB20B1002002490870DB
:1048C0000320C8E70020C6E7200000200000000009
:1048D0005A0300206401002010B54022074908480F
:1048E000FFF7CAF848B90648C06B0068006820F0B6
:1048F00004000349C96B0968086010BD1A03002051
:104900006401002010B5FEF75FFB10BD00B593B049
:10491000282109A8FBF710FE142104A8FBF70CFEC0
:104920000020009001900290039001200990000463
:104930000A9000200B9001200D9002201090C103DE
:1049400011914FF4E011129109A8FEF749FE08B148
:10495000FDF717F90F200490022005900020069023
:104960004FF48060079000200890022104A8FEF711
:1049700013FD08B1FDF705F90220009080030290B5
:104980006846FEF771FC08B1FDF7FBF813B000BDF7
:10499000704700002DE9F04706460C4600213046DE
:1049A00000F01EFD04D90021204600F019FD02D8B8
:1049B0000020BDE8F0870E49204600F023FC804629
:1049C00041460C4800F040FD8146414600F03CFD68
:1049D00007464FF0814100F015FC05460649304678
:1049E00000F032FD0746294600F02EFDE1E7000009
:1049F00000007A44DB0F49400024744970B5054635
:104A00000C4684B1012C02D0022C0BD108E00849DD
:104A1000284600F0F7FB0646064900F0F3FB70BDA0
:104A20002846FCE700BF0249284600F0EBFBF6E70A
:104A30000AE81C4100007A44014649B1012902D02C
:104A4000022904D101E003A0704703A0FCE700BFE6
:104A500002A0F9E7E590A8004E0000006B67000097
:104A600070B505466C6A0020E085E0842046FFF7BB
:104A70004DF870BD70B506460025746A206840691F
:104A8000C0F3C01594F84100212805D125B10020BC
:104A9000E084204600F0FBF820684069C0F38015F0
:104AA00094F84200222805D125B10020E085204657
:104AB00000F0A7F8606C40F0100060642046FFF73B
:104AC00025F870BD70B505466C6A2868006800F06E
:104AD0002000002842D1E08500BF00BF21680C31D2
:104AE00051E8001F21F4807021680C3141E8000278
:104AF000002AF3D100BF00BF00BF2168143151E884
:104B0000001F21F001002168143141E80002002A51
:104B1000F3D100BF00BF00BF2168143151E8001F6E
:104B200021F040002168143141E80002002AF3D14D
:104B300000BF202084F84200206B01280ED100BF66
:104B400000BF21680C3151E8001F21F010002168DE
:104B50000C3141E80002002AF3D100BF002060635D
:104B6000206B012804D1A18D2046FEF7BDFF02E095
:104B70002046FFF777FA70BD70B505466C6A0120D4
:104B80006063206B012805D1A08D41082046FEF707
:104B9000ABFF02E02046FFF766FA70BD70B5054630
:104BA0006C6A2868006800F02000F8B90020E084F2
:104BB00000BF00BF2168143151E8001F21F08000C0
:104BC0002168143141E80002002AF3D100BF00BF80
:104BD00000BF21680C3151E8001F41F040002168FE
:104BE0000C3141E80002002AF3D102E02046FFF731
:104BF00081FA70BD70B50446656A2846FFF786FAEB
:104C000070BD00BF00BF02680C3252E8002F22F4D2
:104C1000907102680C3242E80013002BF3D100BF00
:104C200000BF00BF0268143252E8002F22F00101D9
:104C30000268143242E80013002BF3D100BF016B6D
:104C400001290ED100BF00BF02680C3252E8002FCC
:104C500022F0100102680C3242E80013002BF3D15D
:104C600000BF202180F8421000210163704710B579
:104C700004462068C06820F040002168C8602020F9
:104C800084F841002046FFF735FA002010BD00BF30
:104C900000BF02680C3252E8002F22F0C001026807
:104CA0000C3242E80013002BF3D100BF202180F822
:104CB00041107047F8B5044694F84200222875D197
:104CC000A068B0F5805F0CD1206950B90025A66AB4
:104CD00020684068C0F308003080A06A801CA06291
:104CE00015E0A56A0026A068B0F5805F03D0A06833
:104CF00028B9206918B920684068287004E0206845
:104D0000406800F07F002870A06A401CA062E08D1F
:104D1000401E80B2E085002846D12068C06820F09F
:104D200020002168C8602068C06820F48070216875
:104D3000C8602068406920F0010021684861202097
:104D400084F8420000206063206B012826D10020F7
:104D5000206300BF00BF21680C3151E8001F21F023
:104D6000100021680C3141E80002002AF3D100BF95
:104D70002068006800F0100010280AD100BF002051
:104D8000009020680068009020684068009000BF94
:104D900000BFA18D2046FEF7A7FE02E02046FFF7E8
:104DA00061F90020F8BD01E00020FBE70220F9E7EF
:104DB00070B504462168096921F44051E268114345
:104DC000226811612269A1681143626941EA020502
:104DD0002168C96841F20C62914329432268D1607D
:104DE0002168496921F44071A26911432268516127
:104DF0002D4A2168914202D1FEF7AAFB01E0FEF79D
:104E000097FB00EBC00101EB001162689200B1FB5F
:104E1000F2F100EBC00202EB001263689B00B2FBF0
:104E2000F3F26423B2FBF3F202EBC20303EB0212D0
:104E3000A1EB8201322202EB01116422B1FBF2F1FB
:104E400001F0F00100EBC00202EB001263689B006E
:104E5000B2FBF3F26423B2FBF3F201EB021200EBBC
:104E6000C00101EB001163689B00B1FBF3F100EBA3
:104E7000C00303EB00136668B600B3FBF6F36426C9
:104E8000B3FBF6F303EBC30606EB0313A1EB8301BD
:104E9000322303EB01116423B1FBF3F101F00F01A5
:104EA00011442268916070BD0038014077B581B02F
:104EB000044615460298A062A58500206064222061
:104EC00084F842002848E16B88622848E16BC86298
:104ED0002748E16B08630020E16B486302AE32684B
:104EE0002368191D2B46E06BFDF768FD00BF00200D
:104EF000009020680068009020684068009000BF23
:104F000000BF206970B100BF00BF21680C3151E8BB
:104F1000001F41F4807021680C3141E80002002A32
:104F2000F3D100BF00BF00BF2168143151E8001F5A
:104F300041F001002168143141E80002002AF3D158
:104F400000BF00BF00BF2168143151E8001F41F0CD
:104F500040002168143141E80002002AF3D100BF6B
:104F6000002004B070BD0000C54A0008794B00085D
:104F7000754A0008014691F84100212828D1886827
:104F8000B0F5805F0BD1086948B90A6A1088C0F390
:104F900008000B685860086A801C086205E00B6A0C
:104FA000581C086218780B685860C88C401E80B284
:104FB000C88458B90868C06820F080000B68D860C1
:104FC0000868C06840F040000B68D8600020704757
:104FD0000220FCE710B50248FEF79AFD10BD000064
:104FE0006401002010B50248FEF792FD10BD0000DC
:104FF000AC01002000BFFEE7490050EAC12018BF05
:1050000004204A0D18BF40F0010040F2FF72B2EBDD
:10501000515F08BF40F00200012808BF052070471B
:1050200002480068C0F30220704700000CED00E069
:1050300010B5002804DB0A07130E054A135406E0D6
:105040000A07140E034A00F00F031B1FD45410BDAF
:1050500000E400E018ED00E030380A2801D2012019
:10506000704700207047FDF7BBFFFFF74FFCFFF7CD
:1050700043F9FFF707F9FFF74DF8FFF787F9FFF757
:10508000A1F9FFF7E3F8FFF763F9FCF7B9FC01E0DA
:10509000FCF7DAFCFCE7000010B500290AD008781C
:1050A000002807D005487844FBF7C0FF002801D04E
:1050B000002010BD0248784410BD0000E207000047
:1050C000DA0700000808A0F500114FEA3101704727
:1050D00043004FEAD30C4FEA3C0C43401FBF40074C
:1050E0000CF1605113F0FE4F70471CF0006F03D1BC
:1050F00000200CF0004170470CF0004343EA507070
:1051000010B540EACC0000F020FA00BF0000009289
:105110004FEA0001FFF7D6BF4FF000414FF000000B
:10512000A1F500217047000090EA010F48BF81F00F
:10513000004100F18E82421A3CBF801A89184FEA62
:10514000D0524FF07F4C1CEA410FA2EBD15318BF55
:105150009CEA026F00F03B804FF0004C4CEA0020CC
:105160004CEA012121FA03FC10EB0C0C1ED202F1D7
:10517000FF325FEA1C2040EBC25038BF70471CF082
:105180007F0F4FEA400C18BFBCF17F4F38BF70470C
:10519000C3F12003994008BF20F00100BCF17F4F0C
:1051A00038BF7047A0F1C04000F015BA4FEA3C008C
:1051B000000A40EBC25028BF1CF0FF0F4FEA400C22
:1051C000E6D018BFBCF17F4F38BF7047EAE79CEAD2
:1051D000026F05D010EA5C0F08BF00F00040704776
:1051E00010B500F0B2F900BF64FBBE3E401058BFDE
:1051F000C0F14040491058BFC1F140418142EFF336
:10520000008070474FF47F0C1CEAD0121EBF1CEACE
:10521000D11392EA0C0F93EA0C0F00F0858090EA0C
:10522000010F48BF42F4807240F4000C41F40000CA
:105230002CF07F4120F07F4000B58142A2EB0302B9
:105240000FF2081CACEB504EC0F100009EF800E0DD
:105250004FEA4E0E00FB0EFC38BF49004FEA2C1CF3
:1052600002F5FA020CFB0EF34FEACE1E4FEA112CA8
:105270004FEAC1210EEB635E42EB22420EFB0CFCB7
:105280004FEA1C5300FB03114FEA112C4FEA013186
:105290000EFB0CFC4FEADC4C00FB0C11C14228BF9A
:1052A00009184CEB03335DF804EB10EB410143EBC1
:1052B000C250B2F57C0F38BF704729D512F0F00FFD
:1052C0001CBF00F1C04000F00040704700818283A5
:1052D0008485868788898B8C8D8E8F919293959605
:1052E00097999A9C9D9FA0A2A3A5A7A8AAACAEB08F
:1052F000B2B3B5B7B9BCBEC0C2C5C7C9CCCED1D494
:10530000D7D9DCDFE2E6E9ECF0F3F7FAFE000000C3
:105310004FEA400C0CF1807CBCF17E4F28BF7047F7
:10532000B0F1C04000F057B990EA010F0CEAD11378
:1053300048BF42F48072624538BF634507D213F418
:105340007F0F16D080EA010000F00040704710B5D2
:1053500000F0FBF8097EFC3E00F005B880EA010091
:1053600000F00040704780EA010000F0004000F0CB
:1053700032B912F47F0F04BF0248704780EA01007F
:1053800000F029B90000C07F10F0004148BF404242
:10539000B0FA80F310FA03F2C3F19D030BD051EA87
:1053A000C35101EB1220530638BF704700F10100D2
:1053B00008BF20F001007047B0FA80F310FA03F242
:1053C000C3F19D030AD0D90501EB1220530638BF63
:1053D000704700F1010008BF20F001007047000095
:1053E00050EA010C00F113801CF5000F58BFBCF50A
:1053F000000F01D48842704707D710F5000F58BF3F
:1054000011F5000F15D488427047894270471CF58A
:10541000000F04D5BCF5000FF7D5814270474FF05F
:10542000807C1CEB400F38BF1CEB410F01D2814246
:10543000704710B500F089F8922449004FF00050F1
:105440004FF08051FFF7D2BE4FF47F0C1CEAD01210
:105450001EBF1CEAD11392EA0C0F93EA0C0F00F066
:10546000478090EA010F48BF42F480724FF0004C31
:105470004CEA00204CEA012102EB0302A0FB0113DD
:10548000A2F50002002918BF43F001035B0028BF0A
:105490004FEA330342EB22425FEA132C4CEBC2503B
:1054A0002EBFBCEB436FB2F57C0F70474FEA036C25
:1054B000BCF1004F08BF20F00100B2F57C0F38BFEF
:1054C00070470BD582F0FF0212F5803FC8BF7047CE
:1054D00000F1C040D8BF00F00040704700F5000C5C
:1054E0005FEA4C0C48BF7047B0F1C04000F073B8A1
:1054F00090EA010F0CEAD11348BF42F48072624572
:1055000038BF634504D280EA010000F000407047D4
:1055100010B500F01AF800BF8900013E00F007B88E
:1055200000F009B85FEA410C5FEA1C6C08D080EA21
:10553000010000F050B85FEA400C5FEA1C6CF6D145
:105540004FF00040A0F5800070470EF1020E2EF0E3
:10555000030E5EF8044B244204D44FEA4102B2F138
:105560007F4F11D84FEA4003B3F17F4F0CD80ED1D3
:105570004FEAD07CB2F17F4F0CEB4C0C0CF1020CDB
:1055800008BF4CEBD17C04E04FF0080C01E04FEA7F
:10559000D17C0CEB4C0324FA03F404F00704B4F1BF
:1055A000040C06D20EEB840CBDE810404CF0010C4C
:1055B0006047DFE80CF0070802024FF00040A0F55A
:1055C000800010BD0846420018BFD2F1807288BF2B
:1055D00000F0004010BDFF2141EAD050C0057047E7
:1055E00051EA000C00F113801CF5000F58BFBCF508
:1055F000000F01D48142704707D711F5000F58BF43
:1056000010F5000F15D481427047894270471CF590
:10561000000F04D5BCF5000FF7D5884270474FF056
:10562000807C1CEB410F38BF1CEB400F01D288423D
:10563000704780EA010081EA000180EA0100FFF77B
:10564000F8BE000090EA010F48BF81F000413FF52D
:1056500072AD421A04D882F00042A0EB020011445D
:105660004FEAD0524FF07F4C1CEA410FA2EBD153CE
:1056700018BF9CEA026F4AD04FF0004C4CEA002061
:105680004CEA012121FA03FCB0EB0C0C0FD412F010
:10569000FE0F36D05FEA4C001DD5001240EBC25021
:1056A00038BF70471CF03F0F18BF70470BE0A2F1E6
:1056B00001025FEA1C2040EBC25038BF70471CF06B
:1056C0007F0F18BF7047C3F12003994014BF401EDD
:1056D00020F00100704780084FEA122308BF70478E
:1056E000B0FA80FCA2EB0C02CCF1280C60FA0CF0B2
:1056F00093EA122F04BF00EBC25070474FEAC37009
:105700007047130A5FEADC1008BF7047F6E79CEAAF
:10571000026F04D010EA5C0F08BF0020704710B57C
:10572000FFF713FF40DFF63E81F000407047FBF7C4
:105730005FB8FBF793B902030405060708090A0BD3
:105740000C0D0E0F101001020203040506070809D4
:105750000A0B0C0D0E0F10100102000000000000DB
:10576000000001020304060708090000000001020E
:10577000030430313233343536373839414243440B
:1057800045464030580030313233343536373839B9
:1057900061626364656640307800040000080000C0
:1057A00000000000000200010000103031323334EC
:1057B0003536373839616263646566787000303138
:1057C00032333435363738394142434445465850F0
:1057D0000000000002400000000000A000000000E7
:1057E00005400000000000C8000000000C40000060
:1057F0000000409C00000000194000000020BCBEDA
:105800000000000034400000BFC91B8E00000004EF
:10581000B5400000504BCFD06607E2CF010000003A
:105820006C4100003E8251AADFEEA7340100000067
:10583000D9420000DCB5A0E23A301F97FFFFFFFF1E
:10584000B4450000FD25A0C8E9A3C14FFFFFFFFF3D
:10585000FF3F00000000008000000000FF3F00004C
:105860000000008000000000A45800080000002094
:105870004400000028010008E85800084400002007
:10588000FC090000440100081C0000004300000067
:10589000F8FFFFFF0C0000000E0000000F000000EA
:1058A0002E000000000000001000000001000000B9
:1058B00000127A000000000000000000000000005C
:1058C00000000000000000000000000000000000D8
:1058D00000000000000000000000000000000000C8
:0858E0000000000000000000C0
:04000005080000ED02
:00000001FF
